:020000040800F2
:10000000600700208901000817100008310F000860
:10001000151000088F0200085F12000800000000A1
:100020000000000000000000000000005B1000085D
:10003000B9020008000000005910000895100008DF
:10004000A3010008A3010008A3010008A301000800
:10005000A3010008A3010008A3010008A3010008F0
:10006000A3010008A3010008A3010008A3010008E0
:10007000A3010008A3010008A3010008A3010008D0
:10008000A3010008A3010008A3010008A3010008C0
:10009000A3010008A3010008A3010008A3010008B0
:1000A000A3010008A3010008A3010008A3010008A0
:1000B000A3010008A301000800000000A30100083C
:1000C000A30100080000000000000000A3010008D8
:1000D00000000000A3010008A301000800000000C8
:1000E000A3010008A3010008A301000800F002F822
:1000F00000F03AF80AA090E8000C82448344AAF188
:100100000107DA4501D100F02FF8AFF2090EBAE885
:100110000F0013F0010F18BFFB1A43F0010318473B
:10012000BC120000DC120000103A24BF78C878C16D
:10013000FAD8520724BF30C830C144BF04680C60ED
:10014000704700000023002400250026103A28BF35
:1001500078C1FBD8520728BF30C148BF0B60704739
:100160001FB51FBD10B510BD00F058F81146FFF7C0
:10017000F7FF01F08FF800F076F803B4FFF7F2FF15
:1001800003BC00F07DF8000009488047094800479B
:10019000FEE7FEE7FEE7FEE7FEE7FEE7FEE7FEE737
:1001A000FEE7FEE704480549054A064B7047000094
:1001B000E5100008ED000008600100206007002045
:1001C00060030020600300204FF0000200B51346DA
:1001D00094469646203922BFA0E80C50A0E80C5067
:1001E000B1F12001BFF4F7AF090728BFA0E80C5018
:1001F00048BF0CC05DF804EB890028BF40F8042B11
:1002000008BF704748BF20F8022B11F0804F18BF7D
:1002100000F8012B7047704770477047754600F033
:100220002BF8AE4605006946534620F00700854688
:1002300018B020B5FFF7B6FFBDE820404FF000062C
:100240004FF000074FF000084FF0000B21F00701BE
:10025000AC46ACE8C009ACE8C009ACE8C009ACE801
:10026000C0098D46704710B50446AFF300802046A4
:10027000BDE81040FFF781BF00487047FC00002038
:1002800001491820ABBEFEE7260002007047FEE7DA
:1002900008B5002000900A2301226946054800F0B5
:1002A0009FFD002805D19DF80000C12801D100F074
:1002B000B3FE08BDB40000207047000070B50446CE
:1002C00000F0F8F80546601C02D0044800780444A9
:1002D00000F0F0F8401BA042FAD370BD08000020E7
:1002E0002DE9F84FDFF89C910024A9F1040B234677
:1002F0000F2709F1040AABF1040EBBE00125A5406C
:100300002A40AA4276D1DFF880C14E68A6EB0C08DD
:1003100066452BD00DDC032E34D005DC36B3012E20
:1003200019D0022E2FD11BE0112E16D0122E2AD159
:1003300019E0B8F5881F19D006DCB8F5803F15D054
:10034000B8F5801F1FD111E0B8F5001F0ED0B8F529
:10035000041F18D10AE0CB6815E0CB681B1D12E022
:10036000CB6808330FE0CB680C330CE08B682BB103
:10037000012B4FF0080303D0456104E0042302E0A1
:10038000056100E00023FF2A01D8064601E000F1E4
:1003900004064FEA840501D9A5F12005D6F80080AE
:1003A00007FA05FC28EA0C0803FA05F548EA0508EF
:1003B000C6F800804D68ED005BD5344DAE6946F05F
:1003C0000106AE61AD6924F0030605F00105009554
:1003D0002F4D06EB050CDCF80850A607360F07FA80
:1003E00006F825EA0805DFF8AC80404503D14FF058
:1003F000000810E03DE0DFF8A080404502D14FF05A
:10040000010808E0DFF89480404502D14FF002086F
:1004100001E04FF0030808FA06F848EA0508CCF8AE
:1004200008804D68D9F80060ED024D4601D51643AD
:1004300000E096432E604D68DAF80060AD02554644
:1004400001D5164300E096432E604D68DBF800604E
:10045000AD035D4601D5164300E096432E604D681E
:10046000DEF80060ED03754601D5164300E09643C3
:100470002E60641C0A6832FA04F57FF43FAFBDE8D1
:10048000F88F000008040140000011100010024025
:100490000000014000080140000C01400010014034
:1004A0008068084000D0012070470AB101617047A0
:1004B0000904FBE70148806870470000080000203D
:1004C00070B5040025D094F83D00002520B984F8CB
:1004D0003C50204600F0B8F8242084F83D00206805
:1004E000016821F0010101602068016841F40041C8
:1004F00001602068016821F40041016000F0F2F918
:100500004D4A6168914201D84C4900E04C4988420B
:1005100001D2012070BD4B492368B0FBF1F15E6848
:1005200026F03F060E435E606368934206D94FF49F
:10053000967359434FF47A73B1FBF3F12368491C66
:100540001E6A26F03F06314319626168914210D855
:100550004900401EB0FBF1F2521CC2F30B02042A08
:1005600001D2042022E0B0FBF1F0401CC0F30B00EC
:100570001CE0A268F2B301EBC10303EB0116431EBA
:10058000B3FBF6F35B1C43F480431B0549D092B3E5
:1005900001EBC10202EB0111401EB0FBF1F0401C67
:1005A000C0F30B0040F4804040F400402168CA6969
:1005B0004CF6FF739A431043C861D4E90710014316
:1005C0002068026822F0C00211430160D4E90301EF
:1005D00001432068826848F2FF339A4311438160E7
:1005E000D4E9050108432168CA6822F0FF021043DC
:1005F000C86001E00EE016E02068016841F00101EA
:1006000001602564202084F83D00256384F83E5075
:10061000002070BD01EB4106431EB3FBF6F35B1CEB
:10062000B3E70120C2E701EB4101401EB0FBF1F04E
:10063000401CC0F30B00B7E7A086010080841E00B9
:1006400000093D0040420F0010B586B00021009126
:1006500001910291039100680F4988421AD10F4C11
:10066000A06940F00800A061A069694600F0080098
:100670000490C020009012200190032003900848AD
:10068000FFF72EFEE06940F40010E061E06900F43D
:100690000010049006B010BD00540040001002404D
:1006A000000C014002488168027811448160704763
:1006B00008000020074810B5016841F010010160F2
:1006C000032000F067F80F2000F006F800F024F88F
:1006D000002010BD0020024070B50D4D04464FF4BF
:1006E0007A712878B1FBF0F00A490968B1FBF0F0A3
:1006F00000F0DAFA48B9102C07D200222146501E29
:1007000000F028F800206C6070BD012070BD000072
:1007100008000020140000200C4808B5816941F051
:1007200001018161816901F001010091C16941F01C
:100730008051C161C06900F0805000900448416858
:1007400021F0E06141F00071416008BD00100240FD
:1007500000000140F0B40E4B1B680C46C3F30223AB
:10076000C3F10705042D00D90425191D072901D25D
:10077000002300E0DB1E012606FA05F1491E214098
:1007800099409E40761E16403143F0BC00F068BD93
:100790000CED00E0064900F0070208684FF6FF0381
:1007A000184040EA0220034A1043086070470000E6
:1007B0000CED00E00000FA052DE9F0470F460500BA
:1007C00061D0434E306800F00700B84209D230686B
:1007D00020F0070038433060306800F00700B8426E
:1007E00051D128683B4C810712D5400703D560687A
:1007F00040F4E06060602878000703D5606840F44A
:10080000605060606068A96820F0F0000843606094
:100810002878C00728D06868012810D021680228ED
:1008200010D0890700292EDA616821F00301014305
:100830006160FFF73FFE804641F288390DE0216894
:100840008903EFE78901EDE7FFF734FEA0EB08012C
:10085000494502D90320BDE8F0876068696800F067
:100860000C00B0EB810FEFD1306800F00700B84208
:100870000BD9306820F0070038433060306800F052
:100880000700B84201D00120E5E72878400705D5E8
:100890006068E96820F4E060084360602878000739
:1008A00006D56068296920F4605040EAC1006060A4
:1008B00000F038F86168084AC1F30311515CC84080
:1008C0000649086006480068FFF706FF0020C2E7F7
:1008D0000020024000100240C21300081400002053
:1008E0000C0000200448054900684968044AC1F327
:1008F0000221515CC84070471400002000100240E3
:10090000D21300080448054900684968044AC1F345
:10091000C221515CC8407047140000200010024002
:10092000D21300080E4A51680E4801F00C03042B44
:1009300011D0082B0FD10C48C1F38343C903C05C0D
:100940000AD55168084AC1F34041921E515C054ADC
:100950005043B0FBF1F07047044948437047000032
:100960000010024000127A00B213000800093D0096
:100970002DE9F84F040070D02078C04DC00749D051
:100980006868C0F38100012807D06868C0F381005F
:10099000022809D16868C00306D52868800339D5C4
:1009A00060680028E7D035E06068B0F5803F0BD084
:1009B00010B1B0F5A02F11D0286820F48030286045
:1009C000286820F4802002E0286840F48030286005
:1009D000606890B1FFF76EFD06460AE0286840F4B3
:1009E00080202860F0E700BFFFF764FD801B6428CB
:1009F00073D828688003F7D50CE0FFF75BFD064647
:100A000005E000BFFFF756FD801B6428F0D828687A
:100A10008003F7D420789A4E80074FF001094FF0F9
:100A2000000839D5686810F00C0F07D06868C0F36B
:100A30008100022809D16868C00306D428688007AD
:100A400014D52069012808D110E02069B0B1C6F89A
:100A50000090FFF72FFD074605E00AE1FFF72AFDAA
:100A6000C01B0228C4D828688007F7D528686169A8
:100A700020F0F80040EAC10028600DE0C6F80080D0
:100A8000FFF718FD074604E0FFF714FDC01B02281E
:100A900023D828688007F7D4207800072CD5794818
:100AA000A169D9B1C0F80090FFF704FD074604E042
:100AB000FFF700FDC01B02280FD8686A8007F7D532
:100AC00071484FF4FA510068B0FBF1F0009000BF9C
:100AD0000098411E0091FAD20EE080E0C0F800803C
:100AE000FFF7E8FC074604E0FFF7E4FCC01B022820
:100AF00075D8686A8007F7D42078400760D5E86920
:100B00000027C00008D4E86940F08050E861E86937
:100B1000012700F0805000905C480168C90513D49B
:100B20000168834641F480710160FFF7C3FC82468F
:100B300006E000BFFFF7BEFCA0EB0A0064284ED819
:100B4000DBF80000C005F5D5E06801280AD008B13F
:100B5000052813D0286A20F001002862286A20F0B6
:100B6000040002E0286A40F001002862E06841F2D7
:100B7000883B98B1FFF79EFC82460BE0286A40F064
:100B800004002862EEE700BFFFF794FCA0EB0A0127
:100B900059455AD8286A8007F6D50CE0FFF78AFC39
:100BA000824605E0FFF786FCA0EB0A0159454CD8C8
:100BB000286A8007F6D41FB1E86920F08050E86108
:100BC000E06988B36968C1F38101022944D0022831
:100BD000C6F8608004D0FFF76DFC044638E034E0CE
:100BE000FFF768FC074604E0FFF764FCC01B02281F
:100BF0002BD828688001F7D4206AB0F5803F05D152
:100C00006868A16820F4003008436860D4E90801EE
:100C10000843696821F4741108436860C6F860905D
:100C2000FFF748FC044606E025E000BFFFF742FC62
:100C3000001B022809D828688001F7D51BE000BFF7
:100C4000FFF738FC001B022802D90320BDE8F88F0B
:100C500028688001F4D40EE00128F7D06868226A81
:100C600000F48031914204D1616A00F4701088422E
:100C700001D00120EAE70020E8E700000010024070
:100C800000004242800442421400002000700040F4
:100C90004FF0E0210428086903D020F00400086127
:100CA000704740F00400FAE710B5401EB0F1807FB5
:100CB00001D3012010BD4FF0E02460610F216017C7
:100CC00000F0CEFA0020A06107202061002010BDB6
:100CD00070B5040004D094F84100002510B106E07E
:100CE000012070BD84F84050204600F023F82420F5
:100CF00084F841002068C16821F40051C160204699
:100D000000F018FA2068016921F49041016120681F
:100D1000416921F02A0141612068C16841F4005114
:100D2000C1606564202084F8410084F84200656356
:100D3000002070BD70B586B0002400940194029428
:100D40000394234E0368234902200322224DB34219
:100D500019D18B6943F480438B618B6903F4804321
:100D600004938B6943F004038B618969039201F05A
:100D7000040104910102CDE9001069462846FFF7FD
:100D8000AFFA28151BE0154EB3421FD1CB6943F4CF
:100D90000033CB61CB6903F4003304938B6943F0D8
:100DA00004038B618969039201F004010491042119
:100DB000CDE9001069462846FFF792FA0820CDE9F0
:100DC0000004694628460294FFF78AFA06B070BD0F
:100DD000003801400010024000080140004400407B
:100DE0002DE9F84F044690F842009A4616460D4603
:100DF000202802D00220BDE8F88FB5B1AEB10020A6
:100E00006064222184F842102063FFF753FBA6851B
:100E10008146E685A0684FF480582027404501D1DF
:100E2000206920B12E46002529E00120E3E70026B5
:100E300025E04B46002220212046CDF800A000F0FE
:100E4000D5F918B184F842700320D4E726B1A06820
:100E500040451AD038B108E020684068C0F3080067
:100E600025F8020B08E0206978B12068406800F09E
:100E70007F0000BF06F8010BE08D401EE085E08D8D
:100E80000028D6D184F84270B5E720684068F1E7C1
:100E90002DE9F843044690F84100984616460D4661
:100EA000202802D00220BDE8F88385B17EB1002061
:100EB0006064212084F84100FFF7FCFAA684814693
:100EC000E684A0682027B0F5805F02D003E001200F
:100ED000E9E7206910B12E4600250EE000260CE05F
:100EE0008021204600F082F9A8B9C6B116F8010B9E
:100EF00021684860E08C401EE084E08C4B464FF057
:100F00000002CDF800800028EAD14FF040012046D1
:100F100000F06CF940B184F841700320C3E735F864
:100F2000020BC0F30800E3E784F841700020BAE741
:100F3000FEE700002DE9F04385B00024314800941D
:100F4000019402940394816941F0100181618169E7
:100F500001F010010491816941F0200181618169F2
:100F600001F020010491816941F0040181618169EE
:100F700001F004010491816941F0080181618069F7
:100F8000DFF8848000F008004FF4C0450490002290
:100F900029464046FFF789FADFF870904FF4804702
:100FA000002239464846FFF780FA009502260125BF
:100FB0000396CDE9015469464046FFF791F91020A8
:100FC000CDE90004694612480294FFF789F941F21D
:100FD0000100CDE90004694648460294FFF780F914
:100FE00068038DE8310069464846FFF779F90097B4
:100FF0000396CDE9015469464846FFF771F905B0FB
:10100000BDE8F0830010024000100140000C0140D8
:1010100000080140FEE7FEE700224FF4804101484E
:10102000FFF743BA0010014000224FF4804101480D
:10103000FFF73BBA000C0140012291030148FFF782
:1010400034BA000000100140012291030148FFF76B
:101050002CBA0000000C01407047704708B5A12071
:101060008DF800006423012269460248FFF710FF53
:1010700008BD0000B400002008B5A2208DF80000D3
:101080006423012269460248FFF702FF08BD000001
:10109000B4000020FFF706BB30B58FB028216846AA
:1010A000FFF792F814210AA8FFF78EF8012528040B
:1010B000CDE90050002407946846FFF759FC08B1B9
:1010C00072B6FEE70F200A90CDE90B540D94002173
:1010D0000AA80E94FFF770FB002801D072B6FEE755
:1010E0000FB030BD704701680C3151E8002F22F479
:1010F000907241E80023002BF5D10168143151E8CA
:10110000002F22F0010241E80023002BF5D1016BF2
:10111000012909D101680C3151E8002F22F0100299
:1011200041E80023002BF5D1202180F84210002156
:101130000163704770B5044600680169E26821F4F4
:101140004051114301612169A06808436169084366
:101150002168CA6841F20C639A430243CA6020685E
:101160004169A26921F44071114341611E4920681F
:10117000884202D1FFF7C6FB01E0FFF7B3FB00EBAB
:10118000C00101EB0012606864218000B2FBF0F343
:10119000B3FBF1F36FF018067343B2FBF0F5B2FB4B
:1011A000F0F605EB8305322303EB0515B5FBF1F5EE
:1011B000B6FBF1F605F0F00505EB0615B2FBF0F60F
:1011C000B2FBF0F0B0FBF1F06FF01802504306EB09
:1011D000800003EB0010B0FBF1F0216800F00F007D
:1011E0002844886070BD0000003801402DE9F843B4
:1011F000984617460D460446089E24E0701C22D0EF
:10120000FFF758F9A0EB0800B0421AD8CEB1206819
:10121000C168490717D5802D15D0402D13D001681E
:10122000C94309070FD40168002540680090204693
:10123000FFF759FF0820606484F840500120BDE8A2
:10124000F8830320FBE72068006835EA000004D03B
:101250000020B842D2D00020F1E70120F9E7FEE7F4
:101260000907090E002804DB00F1E02080F80014D3
:10127000704700F00F0000F1E02080F8141D704767
:1012800010B504460420FFF703FD0148046010BDBB
:1012900000000020FFF70EFAFFF7FEFEFFF74AFE00
:1012A0003D483C49002701603C49C0E901174FF423
:1012B0008041C0E9037147618761C7610762FFF739
:1012C000FFF808B172B6FEE73348354954300C24B4
:1012D00001604FF4E131C0E90117C760C0E904744F
:1012E0008761C761FFF7F4FC08B172B6FEE72A48D0
:1012F0002C499C3001604FF41651C0E90117C760BA
:10130000C0E904748761C761FFF7E2FC08B172B6F7
:10131000FEE70820FFF7B4FFFFF796FE47F23050D4
:10132000FEF7CCFFFFF780FEFFF786FE4FF47A70E2
:10133000FEF7C4FFFFF770FE4FF480561A4D4FF4CE
:10134000FA794FF00108194CFEF7A2FF3146284602
:10135000FFF7A6F8012808D0FFF766FE20780128DD
:10136000F2D12770FFF788FEEEE74846FEF7A6FFAA
:1013700031462846FFF794F80128E5D1FFF764FECF
:1013800020780028E0D184F80080FFF755FEFFF7B1
:1013900065FED9E70054004018000020A086010037
:1013A0000038014000440040000C014004000020CF
:1013B000010202030405060708090A0B0C0D0E0FB3
:1013C00010100000000000000000010203040607E6
:1013D000080900000000010203040000FC130008DB
:1013E0000000002018000000280100081414000864
:1013F0001800002048070000440100080000000019
:1014000000000000010000001000000000000000CB
:0414100000127A004C
:04000005080000ED02
:00000001FF
