:020000040800F2
:10000000E007002089010008171800087111000896
:1000100015180008CF020008231B0008000000008C
:100020000000000000000000000000003B18000875
:100030009903000800000000391800085919000849
:10004000A3010008A3010008A3010008A301000800
:10005000A3010008A3010008A3010008A3010008F0
:10006000A3010008A3010008A3010008A3010008E0
:10007000A3010008A3010008A3010008A3010008D0
:10008000A3010008A3010008A3010008A3010008C0
:10009000A3010008A3010008A3010008A3010008B0
:1000A000A3010008A3010008A3010008A3010008A0
:1000B000A3010008A301000800000000A30100083C
:1000C000A30100080000000000000000A3010008D8
:1000D00000000000A3010008A301000800000000C8
:1000E000A3010008A3010008A301000800F002F822
:1000F00000F03AF80AA090E8000C82448344AAF188
:100100000107DA4501D100F02FF8AFF2090EBAE885
:100110000F0013F0010F18BFFB1A43F0010318473B
:10012000E01B0000001C0000103A24BF78C878C112
:10013000FAD8520724BF30C830C144BF04680C60ED
:10014000704700000023002400250026103A28BF35
:1001500078C1FBD8520728BF30C148BF0B60704739
:100160001FB51FBD10B510BD00F077F81146FFF7A1
:10017000F7FF01F0F1FC00F095F803B4FFF7F2FF90
:1001800003BC00F09DF8000009488047094800477B
:10019000FEE7FEE7FEE7FEE7FEE7FEE7FEE7FEE737
:1001A000FEE7FEE704480549054A064B7047000094
:1001B000A9190008ED000008E0010020E007002078
:1001C000E0030020E003002010B5431C02E010F81B
:1001D000011B71B18107FAD14FF0013202C88C1AAC
:1001E0008C4314EAC211F9D0C01A0A0603D0C01E0B
:1001F00010BDC01A10BD0A0401D0801E10BD090236
:10020000FCD0401E10BD4FF0000200B513469446CE
:100210009646203922BFA0E80C50A0E80C50B1F15E
:100220002001BFF4F7AF090728BFA0E80C5048BF72
:100230000CC05DF804EB890028BF40F8042B08BF10
:10024000704748BF20F8022B11F0804F18BF00F80C
:10025000012B7047704770477047754600F02CF8C7
:10026000AE4605006946534620F00700854618B0A3
:1002700020B5FFF797FFBDE820404FF000064FF094
:1002800000074FF000084FF0000B21F00701AC46CB
:10029000ACE8C009ACE8C009ACE8C009ACE8C009EA
:1002A0008D46704710B50446AFF300802046BDE888
:1002B0001040FFF762BF0000004870477C0100203B
:1002C00001491820ABBEFEE7260002007047FEE79A
:1002D000F8B500250A23012269462748009500F059
:1002E0009FFE00281AD19DF800000126234CA1286A
:1002F00015D0A22823D0B1282DD0B2280ED10122AA
:100300000821002001F060F81DA1002001F083F811
:1003100065702078002801D101F07EFAF8BD002137
:100320000122084601F050F817A1002001F073F8EF
:1003300001F07AFA012001F09DFA2670F8BD002143
:100340000122084601F040F80DA1002001F063F8F9
:1003500025706078DEE701220821002001F034F8E2
:100360000BA1002001F057F801F05EFA022001F025
:1003700081FA6670F8BD00003401002008000020FA
:1003800020202020202000004342204B5631000036
:100390004342204B563200007047000010B5002049
:1003A00000F0FEFE05A1002001F035F8002000F06D
:1003B000DBFFBDE81040002000F0E4BF4749414D9D
:1003C0002053415420414E204E494E480000000029
:1003D00070B5044600F0F8F80546601C02D00448E9
:1003E0000078044400F0F0F8401BA042FAD370BD3E
:1003F000880000202DE9F84FDFF89C910024A9F136
:10040000040B23460F2709F1040AABF1040EBBE0ED
:100410000125A5402A40AA4276D1DFF880C14E6866
:10042000A6EB0C0866452BD00DDC032E34D005DC82
:1004300036B3012E19D0022E2FD11BE0112E16D06B
:10044000122E2AD119E0B8F5881F19D006DCB8F5AC
:10045000803F15D0B8F5801F1FD111E0B8F5001FFF
:100460000ED0B8F5041F18D10AE0CB6815E0CB68B0
:100470001B1D12E0CB6808330FE0CB680C330CE097
:100480008B682BB1012B4FF0080303D0456104E0CA
:10049000042302E0056100E00023FF2A01D806469C
:1004A00001E000F104064FEA840501D9A5F1200519
:1004B000D6F8008007FA05FC28EA0C0803FA05F5CF
:1004C00048EA0508C6F800804D68ED005BD5344D5C
:1004D000AE6946F00106AE61AD6924F0030605F091
:1004E000010500952F4D06EB050CDCF80850A6071A
:1004F000360F07FA06F825EA0805DFF8AC80404514
:1005000003D14FF0000810E03DE0DFF8A080404547
:1005100002D14FF0010808E0DFF89480404502D195
:100520004FF0020801E04FF0030808FA06F848EA25
:100530000508CCF808804D68D9F80060ED024D46FA
:1005400001D5164300E096432E604D68DAF800604E
:10055000AD02554601D5164300E096432E604D6826
:10056000DBF80060AD035D4601D5164300E096431D
:100570002E604D68DEF80060ED03754601D5164328
:1005800000E096432E60641C0A6832FA04F57FF49A
:100590003FAFBDE8F88F00000804014000001110D3
:1005A000001002400000014000080140000C014022
:1005B000001001408068084000D0012070470AB157
:1005C000016170470904FBE701488068704700003B
:1005D0008800002070B5040025D094F83D00002567
:1005E00020B984F83C50204600F04EF9242084F8CD
:1005F0003D002068016821F0010101602068016868
:1006000041F4004101602068016821F4004101606B
:1006100000F088FA4D4A6168914201D84C4900E0E7
:100620004C49884201D2012070BD4B492368B0FB80
:10063000F1F15E6826F03F060E435E606368934208
:1006400006D94FF4967359434FF47A73B1FBF3F123
:100650002368491C1E6A26F03F063143196261680F
:10066000914210D84900401EB0FBF1F2521CC2F377
:100670000B02042A01D2042022E0B0FBF1F0401C5E
:10068000C0F30B001CE0A268F2B301EBC10303EB63
:100690000116431EB3FBF6F35B1C43F480431B05BA
:1006A00049D092B301EBC10202EB0111401EB0FB35
:1006B000F1F0401CC0F30B0040F4804040F40040D7
:1006C0002168CA694CF6FF739A431043C861D4E9A4
:1006D000071001432068026822F0C0021143016044
:1006E000D4E9030101432068826848F2FF339A434A
:1006F00011438160D4E9050108432168CA6822F0EA
:10070000FF021043C86001E00EE016E020680168B7
:1007100041F0010101602564202084F83D0025633B
:1007200084F83E50002070BD01EB4106431EB3FB30
:10073000F6F35B1CB3E70120C2E701EB4101401E69
:10074000B0FBF1F0401CC0F30B00B7E7A08601003E
:1007500080841E0000093D0040420F002DE9F84F43
:100760001F4690468A460446DDF82890FFF72CFF86
:10077000054694F83D0020287FD1192301224049E5
:100780002046009500F0CEFE002876D194F83C007B
:10079000012872D0012084F83C0020680168C90754
:1007A00003D1016841F0010101602068016821F472
:1007B00000610160212084F83D00102084F83E0093
:1007C00000262664C4F824806785608D20852D4826
:1007D000E0622B464A465146204600F029FE90B979
:1007E000206841698069009036E02A4649462046E3
:1007F00000F03EFF50B1206C042804D1206801684D
:1008000041F4007101600120BDE8F88F606A216841
:1008100000780861606A401C6062618D491E6185D4
:10082000218D491E89B2218522685369DB435B070C
:100830000BD451B100781061606A401C6062608D19
:10084000401E6085208D401E20852A464946204650
:1008500000F03CFE0028CED1208D0028C5D154F8F0
:100860003D0B016841F400710160202004F81E096D
:10087000E67766770020C7E7FFE70220C4E70000BD
:10088000020010000000FFFF10B586B000210091AB
:1008900001910291039100680F4988421AD10F4CCF
:1008A000A06940F00800A061A069694600F0080056
:1008B0000490C0200090122001900320039008486B
:1008C000FFF798FDE06940F40010E061E06900F492
:1008D0000010049006B010BD00540040001002400B
:1008E000000C014002488168027811448160704721
:1008F00088000020074810B5016841F01001016030
:10090000032000F067F80F2000F006F800F024F84C
:10091000002010BD0020024070B50D4D04464FF47C
:100920007A712878B1FBF0F00A490968B1FBF0F060
:1009300000F0DAFA48B9102C07D200222146501EE6
:1009400000F028F800206C6070BD012070BD000030
:1009500088000020940000200C4808B5816941F00F
:1009600001018161816901F001010091C16941F0DA
:100970008051C161C06900F0805000900448416816
:1009800021F0E06141F00071416008BD00100240BB
:1009900000000140F0B40E4B1B680C46C3F3022369
:1009A000C3F10705042D00D90425191D072901D21B
:1009B000002300E0DB1E012606FA05F1491E214056
:1009C00099409E40761E16403143F0BC01F0AAB813
:1009D0000CED00E0064900F0070208684FF6FF033F
:1009E000184040EA0220034A1043086070470000A4
:1009F0000CED00E00000FA052DE9F0470F46050078
:100A000061D0434E306800F00700B84209D2306828
:100A100020F0070038433060306800F00700B8422B
:100A200051D128683B4C810712D5400703D5606837
:100A300040F4E06060602878000703D5606840F407
:100A4000605060606068A96820F0F0000843606052
:100A50002878C00728D06868012810D021680228AB
:100A600010D0890700292EDA616821F003010143C3
:100A70006160FFF7A9FD804641F288390DE02168E9
:100A80008903EFE78901EDE7FFF79EFDA0EB080181
:100A9000494502D90320BDE8F0876068696800F025
:100AA0000C00B0EB810FEFD1306800F00700B842C6
:100AB0000BD9306820F0070038433060306800F010
:100AC0000700B84201D00120E5E72878400705D5A6
:100AD0006068E96820F4E0600843606028780007F7
:100AE00006D56068296920F4605040EAC100606062
:100AF00000F038F86168084AC1F30311515CC8403E
:100B00000649086006480068FFF706FF0020C2E7B4
:100B10000020024000100240E61C00089400002063
:100B20008C0000200448054900684968044AC1F364
:100B30000221515CC8407047940000200010024020
:100B4000F61C00080448054900684968044AC1F3D6
:100B5000C221515CC8407047940000200010024040
:100B6000F61C00080E4A51680E4801F00C03042BD5
:100B700011D0082B0FD10C48C1F38343C903C05CCB
:100B80000AD55168084AC1F34041921E515C054A9A
:100B90005043B0FBF1F070470449484370470000F0
:100BA0000010024000127A00D61C000800093D0027
:100BB0002DE9F84F040070D02078C04DC00749D00F
:100BC0006868C0F38100012807D06868C0F381001D
:100BD000022809D16868C00306D52868800339D582
:100BE00060680028E7D035E06068B0F5803F0BD042
:100BF00010B1B0F5A02F11D0286820F48030286003
:100C0000286820F4802002E0286840F480302860C2
:100C1000606890B1FFF7D8FC06460AE0286840F407
:100C200080202860F0E700BFFFF7CEFC801B64281F
:100C300073D828688003F7D50CE0FFF7C5FC06469B
:100C400005E000BFFFF7C0FC801B6428F0D82868CF
:100C50008003F7D420789A4E80074FF001094FF0B7
:100C6000000839D5686810F00C0F07D06868C0F329
:100C70008100022809D16868C00306D4286880076B
:100C800014D52069012808D110E02069B0B1C6F858
:100C90000090FFF799FC074605E00AE1FFF794FC96
:100CA000C01B0228C4D828688007F7D52868616966
:100CB00020F0F80040EAC10028600DE0C6F800808E
:100CC000FFF782FC074604E0FFF77EFCC01B02280A
:100CD00023D828688007F7D4207800072CD57948D6
:100CE000A169D9B1C0F80090FFF76EFC074604E097
:100CF000FFF76AFCC01B02280FD8686A8007F7D587
:100D000071484FF4FA510068B0FBF1F0009000BF59
:100D10000098411E0091FAD20EE080E0C0F80080F9
:100D2000FFF752FC074604E0FFF74EFCC01B022809
:100D300075D8686A8007F7D42078400760D5E869DD
:100D40000027C00008D4E86940F08050E861E869F5
:100D5000012700F0805000905C480168C90513D459
:100D60000168834641F480710160FFF72DFC8246E3
:100D700006E000BFFFF728FCA0EB0A0064284ED86D
:100D8000DBF80000C005F5D5E06801280AD008B1FD
:100D9000052813D0286A20F001002862286A20F074
:100DA000040002E0286A40F001002862E06841F295
:100DB000883B98B1FFF708FC82460BE0286A40F0B8
:100DC00004002862EEE700BFFFF7FEFBA0EB0A017C
:100DD00059455AD8286A8007F6D50CE0FFF7F4FB8E
:100DE000824605E0FFF7F0FBA0EB0A0159454CD81D
:100DF000286A8007F6D41FB1E86920F08050E861C6
:100E0000E06988B36968C1F38101022944D00228EE
:100E1000C6F8608004D0FFF7D7FB044638E034E022
:100E2000FFF7D2FB074604E0FFF7CEFBC01B02280A
:100E30002BD828688001F7D4206AB0F5803F05D10F
:100E40006868A16820F4003008436860D4E90801AC
:100E50000843696821F4741108436860C6F860901B
:100E6000FFF7B2FB044606E025E000BFFFF7ACFB4E
:100E7000001B022809D828688001F7D51BE000BFB5
:100E8000FFF7A2FB001B022802D90320BDE8F88F60
:100E900028688001F4D40EE00128F7D06868226A3F
:100EA00000F48031914204D1616A00F470108842EC
:100EB00001D00120EAE70020E8E70000001002402E
:100EC0000000424280044242940000200070004032
:100ED0004FF0E0210428086903D020F004000861E5
:100EE000704740F00400FAE710B5401EB0F1807F73
:100EF00001D3012010BD4FF0E02460610F21601785
:100F000000F010FE0020A06107202061002010BD2D
:100F100070B5040004D094F84100002510B106E03B
:100F2000012070BD84F84050204600F023F82420B2
:100F300084F841002068C16821F40051C160204656
:100F400000F05AFD2068016921F490410161206898
:100F5000416921F02A0141612068C16841F40051D2
:100F6000C1606564202084F8410084F84200656314
:100F7000002070BD70B586B00024009401940294E6
:100F80000394234E0368234902200322224DB342D7
:100F900019D18B6943F480438B618B6903F48043DF
:100FA00004938B6943F004038B618969039201F018
:100FB000040104910102CDE9001069462846FFF7BB
:100FC00019FA28151BE0154EB3421FD1CB6943F423
:100FD0000033CB61CB6903F4003304938B6943F096
:100FE00004038B618969039201F0040104910421D7
:100FF000CDE9001069462846FFF7FCF90820CDE945
:101000000004694628460294FFF7F4F906B070BD63
:101010000038014000100240000801400044004038
:101020002DE9F84F044690F842009A4616460D46C0
:10103000202802D00220BDE8F88FB5B1AEB1002063
:101040006064222184F842102063FFF7BDFAA68570
:101050008146E685A0684FF480582027404501D19D
:10106000206920B12E46002529E00120E3E7002673
:1010700025E04B46002220212046CDF800A000F0BC
:1010800017FD18B184F842700320D4E726B1A06898
:1010900040451AD038B108E020684068C0F3080025
:1010A00025F8020B08E0206978B12068406800F05C
:1010B0007F0000BF06F8010BE08D401EE085E08D4B
:1010C0000028D6D184F84270B5E720684068F1E77F
:1010D0002DE9F843044690F84100984616460D461F
:1010E000202802D00220BDE8F88385B17EB100201F
:1010F0006064212084F84100FFF766FAA6848146E7
:10110000E684A0682027B0F5805F02D003E00120CC
:10111000E9E7206910B12E4600250EE000260CE01C
:101120008021204600F0C4FCA8B9C6B116F8010B16
:1011300021684860E08C401EE084E08C4B464FF014
:101140000002CDF800800028EAD14FF0400120468F
:1011500000F0AEFC40B184F841700320C3E735F8DD
:10116000020BC0F30800E3E784F841700020BAE7FF
:10117000FEE701684A69D24352050FD46FF48062DA
:101180004A61002140F8301F2022427381730269B6
:1011900042F0040202610173012070470020704791
:1011A00070B5012100F01CF80B4A0C4B00201268AE
:1011B0004FF0E0218C69B2FBF3F54FF47A7675437A
:1011C000B2FBF3F6A5EB56058E69A61BAE42FBD328
:1011D000401C0228EED370BD9400002040420F0056
:1011E000002200F0DDB8012200F0DAB82DE9F0416C
:1011F0000F46804641F0040100F02AF84FF0E02647
:10120000B069114D114C2968B1FBF4F2B1FBF4F156
:101210005200A2EB5101B269821A8A42FBD327F035
:101220000401404600F014F8B06929683223B1FB8C
:10123000F4F2B1FBF4F15A43A2EB5101B269821A04
:101240008A42FBD3BDE8F0819400002040420F00A9
:101250001CB50B4A012302EB400252780A43642179
:10126000009100EB400107488DF8042000EB81005D
:1012700001AA017A40684900FFF770FA1CBD00001E
:1012800000000020C81C00082DE9F0414FEA0008CA
:10129000FFF79AF93228FBD330214046FFF7A0FF31
:1012A0002E4E2F4D002031684FF0E024A369B1FB92
:1012B000F5F24FF47A777A43B1FBF5F7A2EB5702D8
:1012C000A769DF1B9742FBD3401C0528EED33021D2
:1012D0004046FFF785FF31680020A269B1FBF5F3B6
:1012E0004FF47A777B43B1FBF5F7A3EB5703A7697C
:1012F000D71B9F42FBD3401C0528EED3302140462C
:10130000FFF76EFFA06931689623B1FBF5F2B1FBE0
:10131000F5F15A43A2EB5101A269821A8A42FBD32A
:1013200002214046FFF75CFF28214046FFF758FFA7
:101330000C214046FFF754FF06214046FFF750FFBF
:101340000848042200F8182000EB480008224270E8
:101350004046BDE8F041FFF723BF000094000020A5
:1013600040420F0000000020054A12F8101021F042
:10137000010102F8101041F00801FFF731BF000031
:1013800000000020054A12F8101021F0020102F8B6
:10139000101041F00801FFF723BF000000000020FB
:1013A00070B514460A460546100701F0F001060E16
:1013B0002143284600F024F846EA04012846BDE807
:1013C000704000F01DB800007FB50B4E78CE8DE860
:1013D00078000A4B00EB400403EB84039B7A9342B2
:1013E00001D25B1EDAB21DF822201144C9B241F0CD
:1013F0008001FFF7F5FE7FBDB81C0008C81C00087F
:1014000070B50C460546FFF723FF21462846BDE888
:101410007040FFF7EBBE70B50C46054603E028466A
:10142000641CFFF7E0FE21780029F8D170BD0000B0
:10143000F8B50446C06A1E460D461746082807D070
:10144000012805D010F5803F02D0206B122804D16E
:101450002068016841F480710160134600224FF05A
:1014600001112046009600F05DF840B12068006848
:10147000C00502D54FF4007020640320F8BD206938
:10148000B0F5804F0ED00620216800EAD51040F05C
:10149000F000086133463A460B49204600F08AF8CE
:1014A00078B902E005F0FE0000E0E8B221680861CA
:1014B000054933463A46891F204600F07BF800284C
:1014C000DCD00120F8BD00000800010070B5164610
:1014D0000D4604461EE02046FFF74BFE08B10120F2
:1014E00070BD681C16D0FFF76FF8801BA84200D8AB
:1014F00085B920684069C04340070BD5002044F8F7
:10150000300F20216173A073216941F02001216116
:101510002073E4E720684069C0434007DBD4002023
:1015200070BD00002DE9F047984617460D46044669
:10153000C1F30746DDF820902AE000BFB8F1FF3F75
:1015400026D0FFF741F8A0EB0901414502D8B8F1D8
:10155000000F1DD12068012E16D0806925EA0000F9
:101560000004000C12D00020B84211D1002044F831
:10157000300F20216173A073216941F020012161A6
:1015800020730120BDE8F0874069E7E70120EBE721
:101590002068012E0AD0806925EA00000004000CB2
:1015A00006D00020B842C9D00020EBE74069F3E73D
:1015B0000120F7E72DE9F047984616460D46044608
:1015C0004FF000094FF0200AC1F3074723E02068DD
:1015D0004069C043400515D42068016841F400719A
:1015E000016021686FF480604861C4F8309084F82D
:1015F0003DA084F83E90216C41F00401216484F800
:101600003C9021E0701C06D0FEF7DEFFA0EB080046
:10161000B04203D816B1012F1FD021E02068012F5E
:1016200015D0806925EA00000004000C18D000BF26
:1016300044F8309F84F80DA084F80E90216941F0A1
:101640002001216184F80C900120BDE8F0874069F9
:1016500025EA00000004000CEAD12068406901E09E
:101660002068806925EA00000004000CAFD1ECE797
:1016700070B516460D4604461EE02046FFF779FD7C
:1016800008B1012070BD681C16D0FEF79DFF801BBD
:10169000A84200D885B920684069C04300060BD530
:1016A000002044F8300F20216173A073216941F0BC
:1016B000200121612073E4E720684069C0430006EF
:1016C000DBD4002070BD000038B50D208DF800007F
:1016D0000A208DF801001E48FEF776FD82B26423D1
:1016E0001B491C48FFF7F4FC642302226946194891
:1016F000FFF7EEFC4FF4FA642046FEF769FE14484B
:101700000D30FEF761FD124982B264230D3111489C
:10171000FFF7DEFC6423022269460E48FFF7D8FC7F
:101720002046FEF755FE0A48C01CFEF74DFD08494D
:1017300082B26423C91C0748FFF7CAFC6423022253
:1017400069460448FFF7C4FC2046FEF741FE38BD59
:101750000A000020EC0000202DE9F04385B00024B1
:1017600029480094019402940394816941F0100186
:101770008161816901F010010491816941F02001CA
:101780008161816901F020010491816941F00401C6
:101790008161816901F004010491816941F00801CE
:1017A00081618069DFF8648000F008004FF4C04573
:1017B0000490002229464046FEF701FFDFF85090D2
:1017C0004FF48047002239464846FEF7F8FE009560
:1017D000022601250396CDE9015469464046FEF7ED
:1017E00009FE4FF440508DE8310069464846FEF747
:1017F00001FE00970396CDE9015469464846FEF77D
:10180000F9FD05B0BDE8F083001002400010014072
:10181000000C0140FEE7FEE700224FF48041014842
:10182000FEF7CDBE00100140012291030148FEF7F2
:10183000C6BE0000001001407047704708B5C120C7
:101840008DF800006423012269460248FFF740FC3E
:1018500008BD00003401002008B5C2208DF800004A
:101860006423012269460248FFF732FC08BD0000EC
:10187000340100207CB504460D208DF804000A20B8
:101880008DF805003248FEF79FFC82B26423304990
:101890003048FFF71DFC22258DF8005064230122FB
:1018A00069462C48FFF714FC29480930FEF78CFCE8
:1018B000274982B2642309312648FFF709FC8DF8D5
:1018C00000506423012269462248FFF701FC64238B
:1018D000022201A91F48FFF7FBFB4FF4FA60FEF755
:1018E00077FD012C04D0022C0BD0032C12D01CE06D
:1018F00017481430FEF768FC1549642382B214318E
:1019000010E013483030FEF75FFC1149642382B2C7
:10191000303107E00E484C30FEF756FC0C4964238A
:1019200082B24C310B48FFF7D3FB4FF4FA70FEF74D
:101930004FFD1A208DF800006423012269460548F6
:10194000FFF7C6FB41F28830FEF742FD7CBD000088
:1019500027000020EC000020FEF7C4BF30B58FB098
:1019600028216846FEF74FFC14210AA8FEF74BFC1D
:1019700001252804CDE90050002407946846FFF7AC
:1019800017F908B172B6FEE70F200A90CDE90B54A3
:101990000D9400210AA80E94FFF72EF8002801D01C
:1019A00072B6FEE70FB030BD704701680C3151E8E8
:1019B000002F22F4907241E80023002BF5D101683A
:1019C000143151E8002F22F0010241E80023002BDE
:1019D000F5D1016B012909D101680C3151E8002FC3
:1019E00022F0100241E80023002BF5D1202180F8DD
:1019F000421000210163704770B504460068016918
:101A0000E26821F44051114301612169A068084353
:101A1000616908432168CA6841F20C639A43024332
:101A2000CA6020684169A26921F440711143416193
:101A30001E492068884202D1FFF784F801E0FFF7D1
:101A400071F800EBC00101EB0012606864218000B6
:101A5000B2FBF0F3B3FBF1F36FF018067343B2FB84
:101A6000F0F5B2FBF0F605EB8305322303EB051529
:101A7000B5FBF1F5B6FBF1F605F0F00505EB061543
:101A8000B2FBF0F6B2FBF0F0B0FBF1F06FF0180231
:101A9000504306EB800003EB0010B0FBF1F021682F
:101AA00000F00F002844886070BD0000003801403D
:101AB0002DE9F843984617460D460446089E24E053
:101AC000701C22D0FEF780FDA0EB0800B0421AD8AF
:101AD000CEB12068C168490717D5802D15D0402D9B
:101AE00013D00168C94309070FD401680025406875
:101AF00000902046FFF759FF0820606484F84050AA
:101B00000120BDE8F8830320FBE72068006835EA80
:101B1000000004D00020B842D2D00020F1E701201C
:101B2000F9E7FEE70907090E002804DB00F1E020D1
:101B300080F80014704700F00F0000F1E02080F8FA
:101B4000141D704710B504460420FFF7C1F9014881
:101B5000046010BD04000020FEF7CCFEFFF7FEFE7F
:101B6000FFF7FAFD45484449002401604449C0E9B3
:101B700001144FF48041C0E9034144618461C461B0
:101B80000462FEF727FD08B172B6FEE73B483D4907
:101B900054300C2501604FF4E131C0E90114C460F8
:101BA000C0E904458461C461FFF7B2F908B172B6B7
:101BB000FEE7324834499C3001604FF41651C0E9C9
:101BC0000114C460C0E904458461C461FFF7A0F951
:101BD00008B172B6FEE70820FFF7B4FF0020FFF758
:101BE00053FBFEF7DBFB002101220846FFF7ECFB6D
:101BF00026A10020FFF70FFC47F23050FEF7E8FB6C
:101C0000FFF762FD4FF4FA60FEF7E2FB0320FFF7F7
:101C100031FE002101220846FFF7D6FB20A100205B
:101C2000FFF7F9FBFFF700FE4FF47A70FEF7D0FBE9
:101C3000FFF7F2FD1F4C4FF4805566144FF4FA770E
:101C4000FEF746FB29462046FEF7B4FC30B9FFF705
:101C5000E3FDFFF7F3FD3846FEF7BAFB31462046B9
:101C6000FEF7A8FC0028EBD1FFF7D6FDFFF7F4FD47
:101C70003846FEF7ADFBE3E7005400409800002033
:101C8000A0860100003801400044004044414E4716
:101C9000204B484F4920444F4E472E2E0000000055
:101CA0002020202020202020202020202020202034
:101CB00000000000000C0140000000004000000097
:101CC00014000000540000000000000098000020F4
:101CD00027100200010202030405060708090A0B87
:101CE0000C0D0E0F1010000000000000000001029B
:101CF00003040607080900000000010203040000B5
:101D0000201D0008000000209800000028010008A5
:101D1000B81D000898000020480700004401000892
:101D20000000000000000000000041540041542B5E
:101D3000434D47463D310041542B434E4D493D32C2
:101D40002C322C302C300041542B434D47533D0056
:101D5000303936383034363032340043616E6820E2
:101D600062616F20646F74206E686170206B6875AB
:101D70002076756320310043616E682062616F20B8
:101D8000646F74206E686170206B6875207675636F
:101D90002032004854204749414D2053415420539C
:101DA000414E2053414E470001000000100000004A
:081DB0000000000000127A009F
:04000005080000ED02
:00000001FF
